{
  "transactions": [
    {
      "hash": "0x39605bc129cc01e251230a51dfd54b2af8a0598ebd3c38474c407f4ab01e9af2",
      "transactionType": "CALL",
      "contractName": null,
      "contractAddress": "0x969d4a1d7a9a530c12cf5fef04566caeacd1145d",
      "function": "applyChainUpdates((uint64,bool,bytes,bytes,(bool,uint128,uint128),(bool,uint128,uint128))[])",
      "arguments": [
        "[(6898391096552792247, true, 0x000000000000000000000000eed7503715fc8c7ed10de1216dce45ac11f61ee4, 0x0000000000000000000000000807fb46f1769634406e30d535e5ac9450266c8a, (false, 0, 0), (false, 0, 0))]"
      ],
      "transaction": {
        "from": "0x9bab1d85c2b2dcffdd0a8b230da1126711594bf9",
        "to": "0x969d4a1d7a9a530c12cf5fef04566caeacd1145d",
        "gas": "0x525dc",
        "value": "0x0",
        "input": "0xdb6327dc0000000000000000000000000000000000000000000000000000000000000020000000000000000000000000000000000000000000000000000000000000000100000000000000000000000000000000000000000000000000000000000000200000000000000000000000000000000000000000000000005fbc02272fbf20b70000000000000000000000000000000000000000000000000000000000000001000000000000000000000000000000000000000000000000000000000000014000000000000000000000000000000000000000000000000000000000000001800000000000000000000000000000000000000000000000000000000000000000000000000000000000000000000000000000000000000000000000000000000000000000000000000000000000000000000000000000000000000000000000000000000000000000000000000000000000000000000000000000000000000000000000000000000000000000000000000000000000000000000000000000000000000000000000000000000000000000000000000000000000000000000000000000000000000000000000000000000000000000000000000000000000000020000000000000000000000000eed7503715fc8c7ed10de1216dce45ac11f61ee400000000000000000000000000000000000000000000000000000000000000200000000000000000000000000807fb46f1769634406e30d535e5ac9450266c8a",
        "nonce": "0x1f",
        "chainId": "0xaa36a7"
      },
      "additionalContracts": [],
      "isFixedGasLimit": false
    }
  ],
  "receipts": [
    {
      "status": "0x1",
      "cumulativeGasUsed": "0x1747207",
      "logs": [
        {
          "address": "0x969d4a1d7a9a530c12cf5fef04566caeacd1145d",
          "topics": [
            "0x8d340f17e19058004c20453540862a9c62778504476f6756755cb33bcd6c38c2"
          ],
          "data": "0x0000000000000000000000000000000000000000000000005fbc02272fbf20b7000000000000000000000000000000000000000000000000000000000000010000000000000000000000000000000000000000000000000000000000000000000000000000000000000000000000000000000000000000000000000000000000000000000000000000000000000000000000000000000000000000000000000000000000000000000000000000000000000000000000000000000000000000000000000000000000000000000000000000000000000000000000000000000000000000000000000000000000000000000000000000000000000000000000000000000000000000000000000000000000000000000000000000000000000000200000000000000000000000000807fb46f1769634406e30d535e5ac9450266c8a",
          "blockHash": "0xae5b52f26ca53c26e4883c26ec643cabe643f5c8da2e902375eef9eee804d3c4",
          "blockNumber": "0x879c6d",
          "blockTimestamp": "0x688c527c",
          "transactionHash": "0x39605bc129cc01e251230a51dfd54b2af8a0598ebd3c38474c407f4ab01e9af2",
          "transactionIndex": "0x84",
          "logIndex": "0xe6",
          "removed": false
        }
      ],
      "logsBloom": "0x00000000000000400000000000000000000000000000000000000000000000000000000000000000000000000000000000000000040000000004000000000000000000000000000000000000000000000000000000000000000000000000000000000000000000000000000000000000000000000000000000000000000000000000000000000000000000000000000000000000000000000000000000000000000800000000000000000000000000000000000000000000000000000000800000000000000000000000000000000000000000000000000000000000000000000000000000000000000000000000000000000000000000000100000000000000",
      "type": "0x2",
      "transactionHash": "0x39605bc129cc01e251230a51dfd54b2af8a0598ebd3c38474c407f4ab01e9af2",
      "transactionIndex": "0x84",
      "blockHash": "0xae5b52f26ca53c26e4883c26ec643cabe643f5c8da2e902375eef9eee804d3c4",
      "blockNumber": "0x879c6d",
      "gasUsed": "0x3ba1c",
      "effectiveGasPrice": "0x1344cf",
      "from": "0x9bab1d85c2b2dcffdd0a8b230da1126711594bf9",
      "to": "0x969d4a1d7a9a530c12cf5fef04566caeacd1145d",
      "contractAddress": null
    }
  ],
  "libraries": [],
  "pending": [],
  "returns": {},
  "timestamp": 1754026622,
  "chain": 11155111,
  "commit": null
}